:020000040800F2
:100000000807002089010008591A0008351900085E
:10001000551A000845020008711A00080000000087
:10002000000000000000000000000000651A000849
:100030006102000800000000611A0008691A000847
:10004000A3010008A3010008A3010008A301000800
:10005000A3010008A3010008A3010008A3010008F0
:10006000A3010008A3010008A3010008A3010008E0
:10007000A3010008A3010008A3010008A3010008D0
:10008000A3010008A3010008A3010008A3010008C0
:10009000A30100084902000855020008A301000856
:1000A000A3010008A3010008A3010008A3010008A0
:1000B000A3010008A3010008A3010008A301000890
:1000C000A3010008A3010008A3010008A301000880
:1000D000A3010008A3010008A3010008A301000870
:1000E000A3010008A3010008A301000800F002F822
:1000F00000F03AF80AA090E8000C82448344AAF188
:100100000107DA4501D100F02FF8AFF2090EBAE885
:100110000F0013F0010F18BFFB1A43F0010318473B
:10012000641B0000841B0000103A24BF78C878C10B
:10013000FAD8520724BF30C830C144BF04680C60ED
:10014000704700000023002400250026103A28BF35
:1001500078C1FBD8520728BF30C148BF0B60704739
:100160001FB51FBD10B510BD00F031F81146FFF7E7
:10017000F7FF01F081FC00F04FF803B4FFF7F2FF46
:1001800003BC00F057F800000948804709480047C1
:10019000FEE7FEE7FEE7FEE7FEE7FEE7FEE7FEE737
:1001A000FEE7FEE704480549054A064B7047000094
:1001B0006D1A0008ED000008080100200807002063
:1001C00008030020080300207047704770477546F9
:1001D00000F02CF8AE4605006946534620F00700B3
:1001E000854618B020B5FFF7DDFFBDE820404FF091
:1001F00000064FF000074FF000084FF0000BAC4630
:10020000ACE8C009ACE8C009ACE8C009ACE8C0097A
:1002100021F007018D46704710B50446AFF300800A
:100220002046BDE81040FFF7A8BF00000048704717
:100230001800002001491820ABBEFEE7260002008E
:1002400070470000FEE7000040F29400C2F2000098
:1002500000F0BAB840F29400C2F2000000F0B4B866
:1002600070470000EFF3108072B600BFFEE7000099
:100270002DE9F04381B0054690F8207000680E46E5
:1002800084688868994640F004000428904611D19B
:10029000F06840F00200022819D13069092821D203
:1002A000B06850B37068B0F1005F32D340F2D6410D
:1002B00029E000BF41F66430C0F6000040F2CD41B5
:1002C00001F0D8FBF06840F002000228E5D041F6CA
:1002D0006430C0F6000040F2CE4101F0CBFB306943
:1002E0000928DDD341F66430C0F6000040F2CF416A
:1002F00001F0C0FBB0680028D4D13068B0F5006FC1
:1003000007D340F2D24141F66430C0F6000001F05C
:10031000B1FB307D022807D341F66430C0F60000FF
:100320004FF49B6101F0A6FB781E01280CD814F055
:10033000E05F0FD0C4F30160032811D105F124015F
:1003400001204FF4000236E005F1240101204FF4B2
:10035000802230E005F1240101204FF400122AE050
:1003600001218140C9F80010B16819B1726841EAF1
:10037000C20101E031684905D6E903232F68114322
:1003800007EB0010C0F88011C0F88431317D0129DD
:1003900005D100F5C2710A6842F480720A60D8F88B
:1003A0000410C0F88C11D8F8002000F5C071C0F816
:1003B0008821002001220B681A430A6001B0BDE8C1
:1003C000F0830000704700002DE9F04F81B0044633
:1003D00000684669D0F804908768D0F80CB0D0F86F
:1003E00010A0D0F81880F10704D1002530071FD4E1
:1003F00026E000BFF90712D00121BA07816009D4B5
:10040000780700F1AB80380700F1B28004F13400C6
:1004100002E000BF04F1280001682046884700255B
:10042000F80500F18780F80300F1AB80300707D5AD
:100430001BF0100004D0206845F400751021C16045
:10044000700708D51BF0080005D02068616C0822F1
:10045000C26020468847B00706D52068C06880077C
:1004600002D0216C20468847700607D51AF010008C
:1004700004D0206845F4806510210161B00608D5DC
:100480001AF0080005D02068E16C082202612046BD
:100490008847F00606D520680069800702D0A16C65
:1004A00020468847B00308D519F0100005D0206811
:1004B000216D1022426020468847F00308D519F0CC
:1004C000080005D02068616D0822426020468847F8
:1004D000300440F191805FEA497040F18A8006F46F
:1004E000807008EA102028435FEA8871014648BFFF
:1004F00041F00201B20558BF01465FEA48700D465F
:1005000048BF45F00405700558BF0D46300540F161
:10051000708018F070006CD010380009052863D87E
:10052000DFE800F0045054585C6000BF45F0080557
:100530005AE000BF20684FF48071BA05816005D48D
:1005400078050FD4380517D4A16B00E0E16A204686
:100550008847F8037FF56AAF13E000BF4FF40065EA
:100560005EE700BF05F50055F8037FF55FAF08E0D3
:100570004FF4805554E700BF05F58045F8037FF53B
:1005800055AF20684FF48031BA03816006D47803F8
:100590000CD4380310D4E16B01E000BF216B20467E
:1005A000884730073FF544AF4AE700BF05F50045EF
:1005B00030073FF53DAF43E705F5803530073FF5A0
:1005C00037AF3DE745F010050EE000BF45F02005D0
:1005D0000AE000BF45F0400506E000BF45F0800599
:1005E00002E000BF45F480752068816921F0700148
:1005F000816120680421416055B1606AA16D40EAC3
:1006000005022046626201B0BDE8F04F084700BF16
:1006100001B0BDE8F08F00002DE9F041E0B30446E1
:10062000006846F20041C4F20001884207D041F65A
:100630006430C0F6000040F21D1101F01BFA207E6C
:1006400002282DD2607E022835D2A07E02283DD21B
:10065000E07E022845D2207F02284DD2607F02280A
:1006600055D2A068800007D041F66430C0F6000083
:100670004FF4927101F0FEF9E0684FEA306004280F
:1006800052D220694FEA304010285AD260694FEAAE
:100690003051072962D26CE00120BDE8F08100BF33
:1006A00041F66430C0F600004FF48F7101F0E2F9BA
:1006B000607E0228C9D341F66430C0F6000040F2E3
:1006C0001F1101F0D7F9A07E0228C1D341F6643092
:1006D000C0F600004FF4907101F0CCF9E07E0228E2
:1006E000B9D341F66430C0F6000040F2211101F0A8
:1006F000C1F9207F0228B1D341F66430C0F6000072
:100700004FF4917101F0B6F9607F0228A9D341F648
:100710006430C0F6000040F2231101F0ABF9A0688C
:100720008000A1D1A8E700BF41F66430C0F6000008
:1007300040F2251101F09EF920694FEA304010285F
:10074000A4D341F66430C0F600004FF4937101F079
:1007500091F960694FEA305107290AD3B0F5E00FEB
:1007600007D041F66430C0F6000040F2271101F0D6
:1007700081F960680138B0F5806F07D341F66430C5
:10078000C0F600004FF4947101F074F994F8200061
:10079000002849D140F6DD1140F6512540F6592296
:1007A00040F6E118C0F60001C0F60005C0F60002F0
:1007B00040F6612340F65D20C0F60008C0F6000355
:1007C00040F64D2640F65527C0F60000C4E90A520F
:1007D00004F130026164E16D40F6E91C40F6E51E6B
:1007E000C0F60006C0F60007C8C2C4E90F0840F60C
:1007F000ED1040F6652240F2C533C0F6000CC0F69D
:10080000000EC0F60000C0F60002C0F60003C4E906
:1008100012CE20656265A36521B940F64111C0F68C
:100820000001E165204688472068016841F0010128
:10083000016000F009FB054620684168C90705D141
:1008400000F002FB401B0B28F6D310E0016821F0FA
:100850000201016000F0F8FA054600BF2068416817
:1008600089070FD500F0F0FA401B0B28F6D3606A19
:10087000052140F400306062012084F82010BDE8BA
:10088000F08100BF217E0268012922F0800208BFAA
:1008900080320260617E0268012922F0400208BFB6
:1008A00040320260A17E0268012922F0200208BFC6
:1008B00020320260E17E0268012922F0100218BF96
:1008C00010320260217F0268012922F0080208BF6D
:1008D00008320260617F0268012922F0040208BF29
:1008E00004320260271D8ECF66691A433A433243B1
:1008F00001391143C16100200121606284F8201098
:10090000BDE8F08170B590F820600C4605460829D6
:1009100007D341F66430C0F6000040F2945101F074
:10092000A9F8701E012884BF002070BD2868806867
:1009300000EA8460B0EB846018BF012070BD000045
:10094000B0B586B040F60004C4F201040068A4F516
:10095000244200219042059102D006B0B0BD00BFF4
:1009600041F21800C4F20200426802AD42F0007287
:100970004260426802F000720192019A026842F0FD
:1009800004020260006800F00400019001984FF436
:100990000060CDE9020104912046294600F064F888
:1009A0004FF48050029002200390032005902046CF
:1009B000294600F059F815200021002200F01EFB06
:1009C000152000F0FFFA16200021002200F016FB8F
:1009D000162000F0F7FA06B0B0BD00007047000026
:1009E000704700007047000070470000704700002B
:1009F000B0B5044690F8200001281DD1022084F8EB
:100A000020002068016821F00101016000F01CFA5B
:100A1000054600BF20684068C00713D000F014FAF4
:100A2000401B0B28F6D3606A40F40030606205205A
:100A300084F820000120B0BD606A40F400206062AC
:100A40000120B0BD00206062B0BD00007047000012
:100A500070470000704700007047000070470000BA
:100A600070470000704700002DE9F04F85B08646C2
:100A7000A0F18040A0F584304FEAB024052C8946CF
:100A8000CDF80CE008D341F6D430C0F60000BD210B
:100A900000F0F0FFDDF80CE0D9F800000021B1EB28
:100AA000104F01D180B240B941F6D430C0F60000F9
:100AB000BE2100F0DFFFDDF80CE0D9F804004FF6AE
:100AC000FF77C1F210074FF6FF71B842C1F2210162
:100AD0000ADC122829D8012101FA00F00F21C0F206
:100AE000060108422AD120E088420FDC0021C1F231
:100AF0001101884222D00021C1F2120188421DD08A
:100B00000021C1F22101884218D00EE00021C1F27B
:100B10002201884212D00021C1F2310188420DD059
:100B20000021C1F23201884208D041F6D430C0F62B
:100B30000000BF2100F09EFFDDF80CE041F2004014
:100B4000C4F201008645D9F800004FF0040108BF47
:100B500003210028019100F0738140F20C4C40F217
:100B60000045C4F2010C4FF00008C4F20105002654
:100B70004FF0000A029442E041F20003C4F2010384
:100B80009E45019B08BF022308F00C040F27A740D5
:100B9000BA43A3401A4341F82020D9F804004FF685
:100BA000FF77C103296854BF21EA0B0141EA0B0119
:100BB0002960029C6968820354BF21EA0B0141EA63
:100BC0000B016960C202A96854BF21EA0B0141EA26
:100BD0000B018002A960C1F21007DCF8000054BFCD
:100BE00020EA0B0040EA0B00CCF80000D9F8000026
:100BF000013630FA06F108F1040800F021810121E4
:100C000001FA06FB10EA0B0FF0D0052C10D341F6C9
:100C1000D430C0F60000CD2100F02CFFDDF80CE050
:100C200040F2004540F20C4CC4F20105C4F2010C44
:100C3000D9F80400B8422BDC122800F2CB80DFE8A0
:100C400000F04D0B738FC9C9C9C9C9C9C9C9C9C980
:100C5000C9C9C993AF0000BFD9F80CA0AAF101001F
:100C60000328C0F0B78041F6D430C0F60000D5218B
:100C700000F000FFDDF80CE040F2004540F20C4CC3
:100C8000D9F80CA0C4F20105C4F2010CA2E000BF27
:100C90004FF6FF71C1F2210188420FDC0021C1F241
:100CA000110188421AD00021C1F21201884215D0E8
:100CB0000021C1F22101884210D08BE00021C1F255
:100CC000220188420AD00021C1F23101884205D0B8
:100CD0000021C1F2320188427CD100BFD9F808005E
:100CE000032812D341F6D430C0F60000F72100F0FB
:100CF000C1FEDDF80CE040F2004540F20C4CD9F8A2
:100D00000800C4F20105C4F2010C48B1012814BF67
:100D1000CEF814B0CEF810B04FF0080A5AE000BF79
:100D20004FF0040A56E000BFD9F80C00411E032919
:100D300012D341F6D430C0F60000E32100F09AFE51
:100D4000DDF80CE040F2004540F20C4CD9F80C0004
:100D5000C4F20105C4F2010C00F1080A3AE000BF38
:100D60004FF0000A36E000BFD9F80C00411E0329FD
:100D700012D341F6D430C0F60000DC2100F07AFE38
:100D8000DDF80CE040F2004540F20C4CD9F80C00C4
:100D9000C4F20105C4F2010C00F1040A1AE000BF1C
:100DA000D9F80C00411E032912D341F6D430C0F605
:100DB0000000EA2100F05EFEDDF80CE040F20045A4
:100DC00040F20C4CD9F80C00C4F20105C4F2010C3D
:100DD00000F10C0A40467146082E24BF2038043129
:100DE0000A680F2383409A430AFA00F01043086010
:100DF00099F80700C0067FF5F9AE41F21801C4F278
:100E00000201086840F6000340F00100086008682D
:100E1000A5F57E7100F0010004900498B00851F827
:100E20002020C4F201039E4508D040F60043C4F2DE
:100E300001039E457FF4A0AE0123A5E60023A3E6AF
:100E400005B0BDE8F08F000040F20410C2F20000CF
:100E500000687047B0B500284AD00446006843F2E5
:100E60000001C4F20001884206D041F64840C0F6B5
:100E70000000AF2100F0FEFD6068072806D341F6B0
:100E80004840C0F60000B02100F0F4FDA068B0F5C5
:100E9000805F06D341F64840C0F60000B12100F063
:100EA000E9FD94E807004CF6CC43036045F2555346
:100EB000036041608260FFF7C7FF2168CA6892073C
:100EC00010D0054603E000BFC86880070AD0FFF7CE
:100ED000BBFF401B21682828F6D3C8688007F3D0E1
:100EE0000320B0BD4AF6AA2008600020B0BD00BFB4
:100EF0000120B0BD40F2000040F20411C2F2000037
:100F0000C2F2000100780A681044086070470000CF
:100F100080B542F20000C4F20200016841F0100105
:100F20000160032000F0AAF80F2000F005F800F09F
:100F300027F8002080BD000070B540F20006C2F224
:100F4000000640F208013278C2F200014FF47A73D1
:100F50000968B3FBF2F20446B1FBF2F1084600F077
:100F6000D3FC0F2C4FF0010508D838B94FF0FF30F3
:100F700021460022002500F041F87460284670BD2B
:100F800082B041F21800C4F202000168022241F06E
:100F900001010160016801F00101019101994168BD
:100FA00041F080514160406800F08050009000980E
:100FB0000420C4F20100016862F31A61016002B00A
:100FC00070470000B0F1FF3F10DDC1B200F01F001C
:100FD000012202FA00F04EF20012CEF2000242EAC2
:100FE000D10121F003010860704700BF41F60D40B8
:100FF000C0F60000BE2100F03DBD000070B51546F2
:101000000E46102A044606D341F60D40C0F60000F5
:10101000AA2100F02FFD102E06D341F60D40C0F698
:101020000000AB2100F026FD4EF60C50CEF2000081
:1010300001684FF0FF33C1F3022181F00702042A57
:1010400028BF0422033903FA02F238BF002126EA3E
:1010500002028A4003FA01F125EA0101114304F07A
:101060000F02043A104409010C3004F16042B4F15B
:10107000FF3FC8BF02F56440017070BD10B5044663
:101080000338052806D341F60D40C0F60000922132
:1010900000F0F0FC4EF60C50CEF2000001684FF666
:1010A000FF02114064F30A2141F0806141F0FD71BB
:1010B000016010BD704700002DE9F04381B00028A9
:1010C00000F0D880044600780D46000700F0B2809A
:1010D000032D07D341F69C30C0F6000040F23931B1
:1010E00000F0C8FC42F20008C4F20208D8F8000080
:1010F00000F00700A8420DD2D8F8000020F0070049
:101100002843C8F80000D8F8000000F00700A84203
:1011100040F0B080206841F204098107C4F202095E
:101120001FD5410705D5D9F8001041F4E061C9F891
:101130000010000705D5D9F8000040F46050C9F848
:101140000000A0686FF0070101EB3011082980F062
:10115000E580D9F8001021F0F0010843C9F800003B
:101160002068C00772D1D8F8000000F00700A8423C
:101170000CD9D8F8000020F007002843C8F8000078
:10118000D8F8000000F00700A84273D1206841079A
:101190001AD5E0686FF0030101EB302104290BD36D
:1011A0004FEA302141B141F69C30C0F600004FF4C7
:1011B000697100F05FFCE068D9F8001021F4E0618B
:1011C0000843C9F80000206800071AD520696FF0AD
:1011D000030101EB302104290BD34FEA302141B147
:1011E00041F69C30C0F6000040F2AB3100F042FC0A
:1011F0002069D9F8001021F4605141EAC000C9F813
:101200000000D9F8002002F00C00082841F200206C
:10121000C0F27A0066D141F65433C2F38341C0F67E
:101220000003595CD20351D440F60010C0F23D00D7
:10123000484357E041F69C30C0F600004FF44E7131
:1012400000F018FC032DBFF445AF4BE7606803289E
:1012500008D341F69C30C0F6000040F2663100F041
:1012600009FC6068022809D0012829D159F8041C1A
:10127000890307D4012001B0BDE8F08359F8041CAC
:101280008901F7D5D9F8001021F003010843C9F806
:101290000000FFF7D9FD064641F28837D9F8000073
:1012A000616800F00C00B0EB810F3FF45CAFFFF71A
:1012B000CBFD801BB842F1D9032001B0BDE8F0831B
:1012C00059F8041C8907D5D5DCE700BFD9F8002000
:1012D00041F64233C2F34042C0F600039A5C4843F1
:1012E000B0FBF2F0D9F8001041F64432C1F303111B
:1012F000C0F60002515C40F2080220FA01F140F20F
:101300000400C2F200000068C2F200021160FFF7A0
:1013100013FE002001B0BDE8F08300BF4FEA30119A
:1013200000293FF416AF41F69C30C0F6000040F2B1
:101330005F3100F09FFBA0680BE700004C20C4F277
:101340004220012101607047B0B586B015460C46B9
:1013500038B141F69C30C0F6000040F2EF3100F0A9
:1013600089FB3DB141F69C30C0F600004FF47C7122
:1013700000F080FB6FF0030000EB346004280AD318
:101380004FEA346038B141F69C30C0F6000040F2BC
:10139000F13100F06FFB0220039003200590002044
:1013A00004904FF4807041F218050290C4F20205D7
:1013B000286802A940F004002860286800F00400B2
:1013C0000190019840F60000C4F20100FFF74CFBC9
:1013D00055F8140C20F0E060204345F8140C06B0DA
:1013E000B0BD000010B541F20804C4F20204206848
:1013F000000658BF10BDFFF75DFE8020A07010BD35
:101400002DE9F04182B0002800F0AA80044600686F
:1014100058B110F00F0108D141F69C30C0F6000021
:1014200040F2671100F026FB206841F20006C00779
:10143000C4F202062ED06068002818BFB0F5803FC5
:1014400040F00E81706800F00C0004281CD0706819
:1014500000F00C00082802D17068C00314D4606842
:10146000002800F0ED81B0F5A02F00F00182B0F56A
:10147000803F00F00182306820F4803030603068B6
:1014800020F48020FBE100BF3068800302D5606853
:10149000002865D02078800738D52069022807D237
:1014A000606920280FD2706810F00C0F17D120E06F
:1014B00041F69C30C0F6000040F2A11100F0DAFACB
:1014C00060692028EFD341F69C30C0F600004FF44D
:1014D000D17100F0CFFA706810F00C0F09D070686D
:1014E00000F00C00082840F091807068C00300F103
:1014F0008D803068800702D52069012830D130689E
:10150000616920F0F80040EAC100306020780007EF
:101510002AD42078400749D4E069032808D341F64B
:101520009C30C0F6000040F2AF2100F0A3FAE06961
:1015300090B1716801F00C01082940F0B3800128D6
:101540000ED07068216A00F480328A4208D1616A44
:1015500000F47010884203D1002002B0BDE8F08191
:10156000012002B0BDE8F081A069022808D341F64D
:101570009C30C0F600004FF4F17100F07BFAA069D6
:10158000002800F07B806020C4F242200121C0F8D6
:101590002014FFF759FC0546706A800700F1B480FB
:1015A000FFF752FC401B0228F6D976E1E0680528D7
:1015B00000F2EA80012101FA00F010F0230F00F0A0
:1015C000E380F06910F0805808D1F06940F0805055
:1015D000F061F06900F080500090009847F2000739
:1015E000C4F200073868C00528D4386840F4807019
:1015F0003860FFF729FC05463868C0051ED4FFF7A0
:1016000023FC401B6428F7D947E100BF206900286C
:1016100000F0A4806020C4F24220012140F8601C48
:10162000FFF712FC054600BF306880073FF567AF43
:10163000FFF70AFC401B0228F6D92EE1E0680028DB
:1016400000F0C280052800F0D980012800F0DA807F
:10165000306A20F001003062306A20F00400D4E0EB
:10166000B0F5A02F3FF4EEAE41F69C30C0F600007E
:1016700040F26D1100F0FEF9E4E600BF6020C4F214
:1016800042200021C0F82014FFF7DEFB054600BF12
:10169000706A80077FF53DAFFFF7D6FB401B02283D
:1016A000F6D9FAE060270228C4F242277AD1206AEC
:1016B00040F48030B0F5803F07D041F69C30C0F652
:1016C00000004FF42E7100F0D5F9606A4FEAB04087
:1016D0000F2807D341F69C30C0F6000040F2B92134
:1016E00000F0C8F900203860FFF7AEFB054600BFE8
:1016F0003068800140F1D680FFF7A6FB401B02282E
:101700004FF00300F4D928E740F20800C2F20000CD
:10171000006844F6D351C1F26201A0FB0101480AFE
:10172000019000BF00BF0198411E002801913FF4C5
:10173000F0AE00BF0198411E002801913FF4E9AED0
:1017400000BF0198411E002801913FF4E2AE00BFA6
:101750000198411E00280191E4D1DAE66020C4F22C
:101760004220002140F8601CFFF76EFB054600BFD9
:10177000306880077FF5CAAEFFF766FB401B022882
:101780004FF00300F4D9E8E641F69C30C0F60000C3
:1017900040F2112100F06EF9F06910F080583FF42A
:1017A00014AF1BE700203860FFF74EFB044600BF74
:1017B000306880017FF5D0AEFFF746FB001B0228A2
:1017C0004FF00300F4D9C8E6306A20F0010030621F
:1017D000306A20F004003062FFF736FB054641F224
:1017E000883700BF306A800720D5FFF72DFB401BEC
:1017F000B8424FF00300F5D9AFE600BF306A40F0C1
:1018000004003062306A40F001003062FFF71CFBD8
:10181000054641F2883700BF306A800706D4FFF7DB
:1018200013FB401BB842F7D937E000BFB8F1000FF7
:101830007FF472AEF06920F08050F0616CE600BF7A
:10184000306820F480303060306820F480203060D0
:10185000FFF7FAFA054600BF306880037FF51AAE3D
:10186000FFF7F2FA401B64284FF00300F4D974E646
:10187000306840F480203060306840F48030306060
:10188000FFF7E2FA054600BF306880033FF502AE7D
:10189000FFF7DAFA401B6428F6D9032002B0BDE84E
:1018A000F08100BF206AB0F5803F14D1A06840F4F9
:1018B0000031B1F5003F08D041F69C30C0F6000081
:1018C00040F2CF2100F0D6F8A068716821F4003111
:1018D00008437060206A7168626A21F474110843D9
:1018E0001043706001203860FFF7AEFA044600BF75
:1018F000306880013FF530AEFFF7A6FA001B0228E2
:101900004FF00300F4D928E6411E0020B0EB116F20
:101910001CBF012070474EF21002CEF2000251604F
:101920004EF62351CEF20001F0230B700721906098
:1019300011607047FEE7000080B540F2940046F267
:101940000041C2F20000C4F200010023102280E82E
:101950000E00C0E90333C0E905338383FEF75CFE64
:10196000002808BF80BDBDE88040FEF77BBC0000BA
:1019700070B586B00020CDE9040041F21800C4F231
:101980000200016840F6000441F0100101600168A6
:10199000C4F2010401F0100101910199016802AD46
:1019A00041F0200101600168032601F0200101914E
:1019B0000199016841F004010160016801F004012E
:1019C00001910199016841F0080101600068294610
:1019D00000F00800019001984FF46040029004F577
:1019E00000600396FFF740F848F2FF60CDE9020679
:1019F00020462946FFF738F84FF6FF70CDE902067A
:101A000004F580602946FFF72FF84FF480700290AC
:101A100002200390059020462946FFF725F806B0DE
:101A200070BD000080B540F2F80043F20001C2F240
:101A30000000C4F20001002240F6FF7380E80E00AF
:101A4000FFF708FA002808BF80BDBDE88040FEF718
:101A500009BC0000FEE70000FFF7C4FCFEE7000041
:101A60007047000070470000FFF744BA704700005D
:101A7000FEE700007047000090B0FFF749FA092028
:101A8000002406904FF480300225CDE90704CDE90B
:101A90000D504FF4E01001210F9006A80B94CDE9F2
:101AA00009440A910C91FFF7ABFC28B1EFF31080C9
:101AB00072B600BFFEE700BF0F20CDE901054FF46D
:101AC0008060CDE9040401A802210394FFF7F4FA31
:101AD00020B1EFF3108072B6FEE700BF00204FF098
:101AE000E06100220025FFF72FFCFFF727FCFFF73E
:101AF0003FFFFFF721FFFFF795FF40F27804C2F2A6
:101B0000000404210820C4E9031540F29405606133
:101B10006520C2F2000560602846FEF769FF40F2CA
:101B20000C07261DC2F20007284631463A462346D6
:101B3000FEF79EFB21682846FEF7E4FE0028F9D157
:101B4000F2E70102000000000000000001020304AF
:101B50000607080902030405060708090A0B0C0D0D
:101B60000E0F10102E2E2F447269766572732F534C
:101B7000544D3332463178785F48414C5F44726946
:101B80007665722F5372632F73746D3332663178BA
:101B9000785F68616C5F63616E2E63002E2E2F4448
:101BA0007269766572732F53544D333246317878AB
:101BB0005F48414C5F4472697665722F5372632FA0
:101BC00073746D3332663178785F68616C5F72630D
:101BD000632E63002E2E2F447269766572732F5325
:101BE000544D3332463178785F48414C5F447269D6
:101BF0007665722F5372632F73746D33326631784A
:101C0000785F68616C5F6770696F2E63002E2E2F9E
:101C1000447269766572732F53544D33324631786E
:101C2000785F48414C5F4472697665722F537263E6
:101C30002F73746D3332663178785F68616C5F63DF
:101C40006F727465782E63002E2E2F44726976654C
:101C500072732F53544D3332463178785F48414C7C
:101C60005F4472697665722F5372632F73746D339C
:101C700032663178785F68616C5F697764672E637C
:101C800000000000A81C0008000000201800000050
:101C900028010008C01C000818000020F006000001
:101CA00044010008000000000100000010000000D6
:101CB0000024F40048656C6C6F21000000000000F7
:04000005080000ED02
:00000001FF
